:020000040000FA
:1000000068E4FF1F5D020000650200006702000057
:1000100000000000000000000000000000000000E0
:100020000000000000000000000000006902000065
:1000300000000000000000006B0200006D020000E4
:100040006F0200006F0200006F0200006F020000EC
:100050006F0200006F0200006F0200006F020000DC
:100060006F0200006F0200006F0200006F020000CC
:100070006F0200006F020000FF0400006F0200002A
:100080006F0200006F0200006F0200006F020000AC
:100090006F0200006F0200006F0200006F0200009C
:1000A0006F0200006F0200006F0200006F0200008C
:1000B0006F0200006F0200006F0200006F0200007C
:1000C00000F002F800F03EF80CA030C80838241800
:1000D0002D18A246671EAB4654465D46AC4201D180
:1000E00000F030F87E460F3E0FCCB6460126334274
:1000F00000D0FB1AA246AB463343184788020000E3
:10010000A8020000103A02D378C878C1FAD8520782
:1001100001D330C830C101D504680C6070470000BD
:100120000023002400250026103A01D378C1FBD813
:10013000520700D330C100D50B6070471FB51FBDFB
:1001400010B510BD00F0C9F81146FFF7F7FF00F039
:1001500009F800F0E1F803B4FFF7F2FF03BC00F088
:10016000E5F800001FB528A207CA01AB07C329A004
:1001700000680090002400F045FB6421264800F050
:1001800026FC4B20C00100F00EFA00BF05E001A9DB
:10019000085D00F07AFA601C84B201A8005D0028B6
:1001A000F5D10D2000F071FA0A2000F06EFA19A0C6
:1001B00000F091FA19A000F08EFA684600F08BFA70
:1001C00000BF00F09CFA0028FBD0684600F083FADC
:1001D00017A000F080FA684600F07DFA12E01D4892
:1001E00000F0AAFA1B4800F053F8002805D019487F
:1001F00000F071FA07A000F06EFA1749C88F642169
:1002000000F0E5FBEBE7000048656C6C6F20576F72
:10021000726C64000D0A0000B82200005072657311
:100220007320616E79206B65792E2E2E0000000000
:100230005479706520736F6D657468696E672061AD
:100240006E6420707265737320456E7465722E2E15
:100250002E00000008E0FF1FC2E1FF1F0748804793
:1002600007480047FEE7FEE7FEE7FEE7FEE7FEE79A
:1002700004480549034A054B70470000190B00006C
:10028000C100000068E3FF1F68E4FF1F68E3FF1F71
:1002900030B5441C03E00178401C00290DD08107D3
:1002A000F9D10B4BDD0104C8D11A91432940FAD092
:1002B000001B0A0603D0C01E30BD001B30BD0A045F
:1002C00001D0801E30BD0902FCD0401E30BD0000B0
:1002D00001010101704770477047754600F022F830
:1002E000AE46050069465346C008C000854618B0B2
:1002F00020B5FFF7BDFF60BC00274908B6460026C1
:10030000C0C5C0C5C0C5C0C5C0C5C0C5C0C5C0C5C5
:10031000403D49008D4670470446C046C0462046D1
:10032000FFF719FF0048704704E3FF1F0149182039
:10033000ABBEFEE726000200704730B47446641E70
:100340002578641CAB4204D3635D5B00E31830BCCA
:1003500018471D46F8E72511070835260A0BBB008C
:100360007755CCDDFF00FFDDEEFFBB77FFEE66CCFF
:10037000EE66CCEE66AAAAEEEEEEEE2288668888DD
:1003800000CC00009C0E000000E0FF1F08000000F1
:1003900004010000A40E000008E0FF1F600400003C
:1003A000200100000000000000000000000000002C
:1003B000000000000000000000000000000000003D
:1003C000000000000000000000000000000000002D
:1003D000000000000000000000000000000000001D
:1003E000000000000000000000000000000000000D
:1003F00000000000000000000000000000000000FD
:10040000FFFFFFFFFFFFFFFFFFFFFFFFFEFFFFFFFD
:1004100070B50446FA20005B255C0021FA22105BCF
:10042000421C93B2FA2213532154FA21085B00F0C4
:1004300091FCFA200153FE20005B401E81B2FE2099
:100440000153284670BD0146FE20405A002801D1C4
:10045000012070470020FCE770B505460C46DF48D8
:10046000844212D1FC20005B205C00280DD1DC48C6
:100470000088401E00B2DA49088008460021415E2B
:10048000002902DA0020D6490880FA20005B401CCF
:1004900081B2FA200153FA21085B00F05BFCFA20DC
:1004A0000153FC21085B411C8AB2FC210A532554EC
:1004B000085BFA2100F04EFCFC20015370BD70B5C2
:1004C00005460C46FC21085B411C8AB2FC210A53FC
:1004D0002554085BFA2100F03DFCFC200153FE206E
:1004E000005B401C81B2FE20015370BD0146FE201E
:1004F000405AFA2801D1012070470020FCE710B5CE
:1005000072B6B84800792021084000281BD0B548B1
:10051000C479002C01D00D2C06D1B1480088401CB4
:1005200000B2AF4908800024AC48FFF7DFFF002885
:1005300004D1AA492046FFF7C2FF03E0A74920469D
:10054000FFF78AFF1AE0A7480079802108400028B9
:1005500014D0A548FFF777FF00280AD0A148C0783B
:10056000802188439F49C8709F48C030418F818750
:1005700004E09D48FFF74CFF9A49C8710E2000F037
:10058000EEF862B610BD002103E0002242544A1C7E
:1005900091B2FA29F9DB0023FA221352FC221352FA
:1005A000FE221352704770B504469048406B0121FB
:1005B000090308438D4948630846806B01214903BC
:1005C00008438A4988638A4800680321090208436E
:1005D00087490860084640680321090208438449A6
:1005E00048608048C0780C2188437E49C870214605
:1005F000804800F0A5FB05097A48007840094001D1
:10060000784908700846407800204870084600780D
:10061000E904C90E08437349087008464078E9B2F6
:1006200008437049487008460078202188436D4986
:10063000087008468078022188436A498870084615
:100640008078102188436749887001210E2000F0CE
:100650008DF80E2000F083F80E2001218140664ABB
:10066000116000BF5F48C078A02108435D49C87091
:100670005D48FFF788FF5948FFF785FF5948C07864
:100680000C2108435749C87070BD70B50446002559
:100690005548FFF72BFF002805D153492046FFF7A7
:1006A0000EFF012504E050492046FFF7D5FE012545
:1006B0004C48C0788021084000280AD14A48FFF7FA
:1006C000A7FE4849C8710846C078802108434549BB
:1006D000C870284670BD70B5054600242846FFF74F
:1006E000D7FD86B2002E08D000BF04E0285DFFF7DA
:1006F000CCFF601C84B2B442F8DD012070BD10B59F
:100700003648FFF7A0FE002814D13448FFF780FEDA
:100710000446002C0CD132480088401E00B23049FB
:1007200008800846015F002902DA00202C49088071
:10073000204610BD0020FCE770B50446284800881C
:10074000002801D1207009E0002500BFFFF7D7FF86
:100750006055691C8DB20028F8D100BF70BDC2067B
:10076000D20E01219140254A1160704710B5002832
:1007700019DA234A03071B0F083B9B089B00D2583A
:100780008307DC0EFF23A3409A438B071B0E8407CD
:10079000E40EA3401A431A4B0407240F083CA40894
:1007A000A4001A5118E0144A03231B02D21883082C
:1007B0009B00D2588307DC0EFF23A3409A438B078C
:1007C0001B0E8407E40EA3401A430B4B03242402A0
:1007D0001B198408A4001A5110BD000002E1FF1F7C
:1007E00000E0FF1F00C0064002E2FF1F008004403F
:1007F00040D0044000366E0100E100E080E200E0FD
:100800001CED00E0B448806BB4490843B2498863EA
:10081000B34800680121C9030843B149086008468C
:10082000006880218843AE4908600020AD49086017
:10083000AD490861AD49C8618861AD494860AB49BF
:100840004861AA494039C8610862A7494861A84976
:100850008860A64940398862C862A648A0490860F5
:100860000320486000208860A3480861A3499C4891
:100870004161032080049A498861A1499848C16177
:100880000020974908620021954841628162C16257
:100890009C490163002141638163C1630164416438
:1008A000112181640021C16401652221416500217B
:1008B0008165C16500680121C903884388490860D2
:1008C000084600688021084385490860704710B5D4
:1008D000834920314200521E8B4B9A5C895C112265
:1008E00011437F4A203243005B1E874CE35CD154A6
:1008F00010BD10B57A4920314200521E824B9A5CDD
:10090000895C11229143764A203243005B1E7E4C63
:10091000E35CD15410BD0021714820307A4A12782E
:100920008154794A527881547848817B6C482030D0
:10093000754A927881547648817B69482030724AA2
:10094000D27881547148017C654820306E4A127912
:1009500081546F48017C624820306B4A527981543F
:100960006A48017C5E482030674A92798154684821
:10097000017C5B482030644AD2798154704730B59D
:1009800004460B46102C1FDA002C1DDB052B1BDA4E
:10099000002B19DD5D48025D514820305900891E49
:1009A000594D695C42545900491E2A46515C405CCD
:1009B000112108405649095D0843494920315A0030
:1009C000521EAA5C885401E0FFF7A5FF30BDF8B5C0
:1009D00004460D46642D31D100BF4E4884422DD2CD
:1009E0007D21C900204600F0ABF9C6B20121304696
:1009F000FFF7C5FF6421204600F0A2F907460A214F
:100A000000F09EF90E4602213046FFF7B8FF0A219A
:100A1000204600F095F907460A2100F091F90E46AC
:100A200003213046FFF7ABFF0A21204600F088F98A
:100A30000E4604213046FFF7A2FF4BE0622D15D190
:100A400000BF102C12D2002600BF0CE00320811B37
:100A50002046C840C707FF0F701CC1B23846FFF7D9
:100A60008EFF701CC6B2042EF0DB33E0682D13D16C
:100A7000002600BF0DE0B0000C21091A2046C84036
:100A800007073F0F721CD1B23846FFF778FF701C82
:100A9000C6B2042EEFDB1DE06F2D19D1012000033B
:100AA000844215D200BF002600BF0EE0700030184F
:100AB0000921091A2046C84047077F0F721CD1B28E
:100AC0003846FFF75CFF701CC6B2042EEEDB01E077
:100AD000FFF721FFF8BD000000800440003C080043
:100AE0000030054000C0044000D0044040A0044055
:100AF00040B004404B00B200800D0E006001300099
:100B00000001100000008844560300005E0300004E
:100B1000700300001027000000207D4908607D4818
:100B2000806B491508437B4988637B48794940318C
:100B300048607A4880687A49084078498860084661
:100B4000C068774908407549C86076484078642194
:100B50000840242108437349487080207249087076
:100B60009A20704908700846C078C006C00EC87048
:100B7000012008710020487100BF6A488079102167
:100B800008400028F9D100BF664880790C21084050
:100B90000828F9D140206349487100BF6148807935
:100BA0000C2108400828F9D100BF5E488079402117
:100BB00008400028F9D01A205A49087000BF594847
:100BC00080790C2108400C28F9D1704770B5554840
:100BD0000078C0210840002868D15248407940215F
:100BE000084000284ED14F480078042108400028D2
:100BF00015D14E4C4B48007838210840C1080120DF
:100C00008840C5B22946204600F09AF80446454877
:100C1000407830210840002803D0640901E0012415
:100C2000E4034048C078E0210840C106C90E00290D
:100C300026D140110300FFF780FB0805090D1115AF
:100C4000191D20230520C00144431AE0052000029D
:100C5000444316E00F20C001444312E00520400247
:100C600044430EE0B720800044430AE0B720C000B0
:100C7000444306E02E48444303E02E48444300E04A
:100C800000BF38E027480079C006C00E451C294641
:100C9000264800F055F8044622484079C006C00EA8
:100CA0000546183520466843044624E01D48007870
:100CB000C0210840402815D11A484078C007C00F0D
:100CC000002802D10124E40315E01648007A0E2220
:100CD00010404208012090400146174800F030F8CB
:100CE000044608E00F480078C0210840802801D160
:100CF0000E4C00E070BD074840304068000F411CBA
:100D0000204600F01DF80D49086000BFF2E7000022
:100D10000081044000800440000001104090044025
:100D2000FFF8FFFE004006400050064000127A0027
:100D300095080000710B000000093D0004E0FF1F52
:100D4000002203098B422CD3030A8B4211D30023C8
:100D50009C464EE003460B433CD4002243088B42A2
:100D600031D303098B421CD3030A8B4201D394462F
:100D70003FE0C3098B4201D3CB01C01A5241830922
:100D80008B4201D38B01C01A524143098B4201D3DC
:100D90004B01C01A524103098B4201D30B01C01A07
:100DA0005241C3088B4201D3CB00C01A5241830881
:100DB0008B4201D38B00C01A524143088B4201D3AE
:100DC0004B00C01A5241411A00D20146524110460E
:100DD00070475DE0CA0F00D04942031000D3404283
:100DE000534000229C4603098B422DD3030A8B42B9
:100DF00012D3FC22890112BA030A8B420CD3890157
:100E000092118B4208D3890192118B4204D389013C
:100E10003AD0921100E08909C3098B4201D3CB017A
:100E2000C01A524183098B4201D38B01C01A52412F
:100E300043098B4201D34B01C01A524103098B4233
:100E400001D30B01C01A5241C3088B4201D3CB001E
:100E5000C01A524183088B4201D38B00C01A524101
:100E6000D9D243088B4201D34B00C01A5241411AD8
:100E700000D20146634652415B10104601D3404206
:100E8000002B00D54942704763465B1000D34042B7
:100E900001B50020C046C04602BD000000000000B1
:040EA000006CDC0204
:040000050000025D98
:00000001FF
